:020000040800F2
:10000000F0050020A1010008FF2E00085D2800086F
:10001000FD2E000811080008593D000800000000EE
:100020000000000000000000000000008133000814
:100030007108000800000000012F00088333000849
:10004000BB010008BB010008BB010008BB010008A0
:10005000BB010008BB010008BB010008BB01000890
:10006000F90800080909000819090008BB0100087F
:10007000BB010008BB010008BB010008BB01000870
:10008000BB010008BB010008BB010008BB01000860
:10009000BB010008BB010008BB01000829090008DA
:1000A000BB010008BB010008BB010008BB01000840
:1000B0002534000831340008BB010008BB010008EA
:1000C000BB010008BB010008BB010008BB01000820
:1000D000BB010008BB010008AD3C0008BB010008E3
:1000E000BB010008BB010008BB010008BB01000800
:1000F000BB010008BB010008BB010008BB010008F0
:10010000BB010008BB010008BB010008BB010008DF
:10011000BB010008BB010008BB010008BB010008CF
:10012000BB010008BB010008BB010008BB010008BF
:10013000BB010008BB010008BB010008BB010008AF
:10014000BB010008BB010008BB010008BB0100089F
:10015000BB010008BB010008BB010008BB0100088F
:10016000BB010008BB010008BB010008BB0100087F
:10017000BB010008BB010008BB0100080000000033
:10018000BB010008BB010008DFF810D000F01CFB29
:1001900000480047A1460008AFF30080F0050020AA
:1001A0000648804706480047FEE7FEE7FEE7FEE711
:1001B000FEE7FEE7FEE7FEE7FEE7FEE71534000890
:1001C000890100082DE9F05F0546002092469B4614
:1001D00088460646814640241BE02846414647465D
:1001E000224600F0FEF853465A46C01A914110D3F9
:1001F00011461846224600F0E5F82D1A67EB010873
:100200004F4622460120002100F0DCF817EB0009E0
:100210004E41201EA4F10104DFDC484631462A4647
:10022000434600F000B830BCBDE8C09FD2B201E048
:1002300000F8012B491EFBD270470022F6E710B5EB
:1002400013460A4604461946FFF7F0FF204610BD44
:100250002DE9FE4F81EA030404F0004421F000413F
:1002600000944FF0000B23F0004350EA01045ED0ED
:1002700052EA03045BD0C3F30A54C1F30A552C4479
:10028000A4F2F3340194A0FB0254C1F3130141F42E
:100290008011C3F3130343F4801301FB024400FBFA
:1002A000034E840A970A44EA815447EA8357A4FB21
:1002B000076802958D0A05FB07854FEA932C04FB1E
:1002C0000C542705029D4FEA065847EA1637B5EB4E
:1002D00008056EEB070C870E920E47EA811742EA7B
:1002E0008312A7FB0201B6EB0B0164EB00042B0D9C
:1002F00043EA0C335E1844EB1C50DA465146E7FBE8
:100300000201C5F313044FEA0B3343EA14534FEAD7
:100310000432019C43EA0603A4F10C040294009CFD
:10032000CDE900B400F0B3F803B000F003B800204A
:100330000146F9E730BCBDE8C08F00F0004230F064
:1003400000400AD0C10D01F56071C0F3160042EA09
:100350000151C20840071143704700200146704711
:1003600001F0004330B421F0004150EA010206D010
:100370000A0DA2F56072C1F31301002A02DC30BC41
:1003800000207047440F44EAC104C100E01830BCAB
:1003900000EBC25000F035B830B50B4601460020E6
:1003A0002022012409E021FA02F59D4205D303FA37
:1003B00002F5491B04FA02F52844151EA2F10102B8
:1003C000F1DC30BD202A04DB203A00FA02F10020E3
:1003D00070479140C2F1200320FA03F31943904083
:1003E0007047202A04DB203A21FA02F000217047EE
:1003F00021FA02F3D040C2F120029140084319468D
:1004000070470029A8BF7047401C490008BF20F072
:100410000100704710B4B0FA80FC00FA0CF050EA0A
:10042000010404BF10BC704749B1CCF1200421FA8B
:1004300004F411FA0CF118BF012121430843A3EB86
:100440000C01CB1D4FEA00614FEA102042BF002093
:1004500010BC704700EBC35010440029A4BF10BC6F
:100460007047401C490008BF20F0010010BC7047D5
:1004700010B5141E73F1000408DA401C41F10001AC
:1004800092185B411A4301D120F0010010BD2DE903
:10049000F04D92469B4611B1B1FA81F202E0B0FAFA
:1004A00080F220329046FFF78DFF04460F4640EA67
:1004B0000A0041EA0B0153465A46084313D011463D
:1004C00053EA010019D0C8F140025046FFF789FFF6
:1004D00005460E46504659464246FFF773FF08430D
:1004E00005D0012004E020463946BDE8F08D00200B
:1004F000054346EAE0762C4337430A986305E40A4D
:10050000A0EB08000022FD0A44EA47540A3002D555
:1005100000200146E9E7010510196941DDE90845B8
:1005200000196941BDE8F04DA2E72DE9FE4F804674
:1005300081EA0300C00F0C46009021F0004123F037
:100540000045B8EB0200A94105D24046214690463D
:100550001C460B46024623F00040104347D0270DAF
:10056000C7F30A00C3F30A510290401A01904028D1
:100570006BDAC3F3130040F4801B0098924620B15D
:100580000023D2EB030A63EB0B0B01985946C0F131
:1005900040025046FFF716FF06460D4650465946A4
:1005A000019A00F023F910EB08006141002487EA6A
:1005B000115284EAE7731A4340D0009A62B3019A59
:1005C000012A4FEA075215DC001B61EB02014FF0D4
:1005D000004202EA0752CDE90042001C41F58011B9
:1005E00032462B46FFF753FF03B000F045B84046B4
:1005F0002146F9E7001B61EB0201001C41F5801365
:1006000000185B412018A2F5001747EB030140EAF0
:10061000D570B6196D4111E06D084FEA360645EA0E
:10062000C0754FEA0752001B61EB0201001C41F547
:10063000801149084FEA30000019514132462B46DB
:1006400003B000F01CB8FFF713BF00980122400070
:100650000023D0EB020263EBE073009821464FEADF
:10066000E074B8EB000061EB0401E9E783F00043BC
:100670005BE781F0004158E730BCBDE8C08F30BC7B
:10068000BDE8C04FFFF7DFBF2DE9F04D81EA03045D
:1006900004F0004B21F0004514464FF0000A23F00F
:1006A000004150EA050220D054EA01021DD0C5F3F2
:1006B0000A570246C5F31303C1F31300C1F30A56E8
:1006C00040F4801543F48013A7EB0608101BD646B0
:1006D00008F2FD3873EB050002D308F1010801E0D0
:1006E00092185B41B8F1000F03DA00200146BDE823
:1006F000F08D00204FF48011064684460EE0171B53
:1007000073EB050705D3121B63EB050306434CEAA5
:10071000010C49084FEA300092185B4150EA01078A
:10072000EDD152EA030012D082EA040083EA050107
:10073000084305D0101BAB4106D20122002306E07E
:1007400000224FF0004302E06FF0010253101AEB59
:1007500006004CEB085110EB0A0041EB0B01BDE821
:10076000F04DFFF785BEC1F30A52C1F3130140F209
:10077000FF3341F480119A4202DA002001467047AB
:1007800040F233439A42A2F2334202DC5242FFF774
:1007900028BEFFF717BE000030B5041E71F100043B
:1007A00004DB4FF00044404264EB0101141E73F17E
:1007B000000405DB1C464FF00043524263EB040388
:1007C000994208BF904230BD064C074D06E0E068F4
:1007D00040F0010394E8070098471034AC42F6D388
:1007E000FFF7D6FCD8470008F8470008202A06DBA8
:1007F000CB17203A41FA02F043EAE07306E041FAEF
:1008000002F3D040C2F120029140084319467047DC
:10081000FEE7000010B502F009F9124C00224FF477
:100820008071204600F0EEFA01228021204600F07F
:10083000E9FA01224021204600F0E4FA022000F00B
:1008400041F809491420087008490A68120401D5C2
:100850000028FAD120460022BDE81040402100F0D7
:10086000D1BA0000000800481C000020100C00480D
:100870007047000010B5002001F0C8FA03480A21B3
:10088000016042F21071416010BD000020000020A4
:100890000B49496848434FF0E021486100228A61D2
:1008A000086940F0010008610869C30701D0C0036E
:1008B000FAD5086920F0010008618A6170470000DC
:1008C000200000200B49096848434FF0E0214861AF
:1008D00000228A61086940F0010008610869C307C5
:1008E00001D0C003FAD5086920F0010008618A61CF
:1008F000704700002000002002490020086004200A
:1009000000F060B92C000020024900200860082097
:1009100000F058B92C000020024900200860102087
:1009200000F050B92C000020074910B500200860E5
:10093000202000F047F9402000F044F9BDE81040C5
:10094000802000F03FB900002C00002072B6FEE7C6
:100950001048006900F0FC010F48FC29017011D01B
:100960007C290BD0BC290BD0DC290CD0EC290CD075
:10097000F4290CD0F82905D1052102E0002100E07E
:100980000121817070470221FBE70421F9E703216F
:10099000F7E700000010004828000020F0B587B0FD
:1009A00014216846FFF749FC5A48C16C41F0100118
:1009B000C164C16C01F010010591C16C41F00401EA
:1009C000C164C16C01F004010591C16C41F00101E9
:1009D000C164C16C01F001010591C16C41F00201DB
:1009E000C164C16C01F002010591C16C41F00801C4
:1009F000C164C06C4FF0904600F0080005900122E1
:100A00004021304600F0FEF9434F01229102384662
:100A100000F0F8F9002440F60300CDE9000469462F
:100A20003046029400F0DAF84FF4805001258DE84A
:100A300031006946304600F0D1F83020CDE900049D
:100A400069463046029400F0C9F848F2C010CDE97A
:100A5000000569463046CDE9024500F0BFF84AF688
:100A60003B00CDE9000469463846029400F0B6F830
:100A700045F2C0700226CDE90005CDE9024669467F
:100A8000384600F0ABF843F20D20CDE90004234FC7
:100A900069463846029400F0A1F84FF4E070CDE9C1
:100AA0000005CDE902466946384600F097F8572020
:100AB000CDE900041A4F69463846029400F08EF8DA
:100AC000A820CDE9000569463846CDE9024500F089
:100AD00085F84FF40140CDE90004124F69463846CD
:100AE000029400F07BF84FF4C060CDE90005CDE939
:100AF00002466946384600F071F847F60300CDE932
:100B00000005CDE902466946384600F067F807B0AF
:100B1000F0BD00000010024000040048000800483A
:100B2000000C00480010004810B590F82510002275
:100B3000022905D00421C16380F82420012010BDC2
:100B400001680B6823F00E030B6001680B6823F04B
:100B500001030B6090F84410046C01F01C030121A8
:100B600001FA03F3636080F8251080F82420104612
:100B700010BD10B590F825100024022903D00421DF
:100B8000C16301241AE001680A6822F00E020A60BB
:100B900001680A6822F001020A6090F84410036CB0
:100BA00001F01C02012101FA02F25A6080F82510BE
:100BB000002180F82410816B01B18847204610BDC8
:100BC00070470000044910B50A68024202D008606C
:100BD000FFF7F6FF10BD0000140401402DE9F04FAF
:100BE000DFF8EC9100220127A9F1040B85B0032561
:100BF0004FF00F0C09F1040AABF1040EE0E000BF66
:100C000007FA02F416EA04037ED00E7906F0030612
:100C1000012E01D0022E1FD186680096560005FADB
:100C200006F80496009E26EA08060096D1F80C8085
:100C3000049E08FA06F8009E48EA0608C0F80880F4
:100C4000466891F80480A643C8F3001808FA02F831
:100C500048EA0608C0F80480D1F804806FEA080664
:100C6000B6070AD1C66AA643C8F3C0049440344309
:100C7000C4620C79E443A4070AD0C4684FEA42086E
:100C800005FA08F6B4438E6806FA08F62643C660ED
:100C90000C7904F00304022C11D1D40800EB840673
:100CA0000296D6F820805407E60E0CFA06F428EADD
:100CB00004080C69B440029E44EA080434620468E3
:100CC0005600029605FA06F6B4430E7906F00308BC
:100CD000029E08FA06F848EA0408C0F800804C684A
:100CE00014F4403F6BD03B4C266E46F0010626665E
:100CF000246E22F0030604F001040094364C3444C0
:100D00000294A468960700E059E04FEA16780CFABE
:100D100008F6B443B0F1904F04D0304EB04203D146
:100D200001261BE0002619E02D4EB04201D102261B
:100D300014E02C4EB04201D103260FE02A4EB042FF
:100D400001D104260AE0294EB04201D1052605E072
:100D5000274EB04201D1062600E0072606FA08F623
:100D60002643029CA660D9F800404E46D1F8048084
:100D70009C435FEAC82800D51C433460DAF8004081
:100D80005646D1F804809C435FEA882800D51C436E
:100D90003460DBF800405E46D1F804809C435FEA93
:100DA000883800D51C433460DEF800407646D1F820
:100DB00004809C435FEAC83800D51C433460521C51
:100DC0000B681E46D3407FF41BAF05B000F012B88D
:100DD00008040140001002400000014000040048E7
:100DE00000080048000C00480010004800140048AB
:100DF0000018004830BCBDE8C08F0069084000D032
:100E0000012070470AB1816170478162704700001C
:100E100001488068704700000C000020024881688B
:100E200002781144816070470C00002010B5002446
:100E3000032000F071F80F2000F008F808B1012439
:100E400001E000F025F8204610BD000070B50E4E00
:100E500005460024307898B14FF47A71B1FBF0F078
:100E60000A490968B1FBF0F000F0DCFF40B9102D31
:100E700006D200222946501E00F02EF8756000E0D0
:100E80000124204670BD00000C0000201800002046
:100E9000094808B5016E41F001010166016E01F0DB
:100EA00001010091816D41F080518165806D00F0FC
:100EB0008050009008BD000000100240002809DBAF
:100EC00000F01F02012191404009800000F1E02064
:100ED000C0F8001170470000F0B40E4B1B680C46C0
:100EE000C3F30223C3F10705042D00D90425191DFE
:100EF000072901D2002300E0DB1E012606FA05F1D6
:100F0000491E214099409E40761E16403143F0BC58
:100F100002F048BF0CED00E0064900F00702086847
:100F20004FF6FF03184040EA0220034A10430860CE
:100F3000704700000CED00E00000FA051649B0F51E
:100F4000007F0868C0F3412009D0022805D0086856
:100F500020F4C06040F480600860002070470128E1
:100F6000FBD0086820F4C06040F4007008600B48B3
:100F70003222006850430A4AB0FBF2F0401C00E005
:100F8000401E4A69520501D50028F9D1486940053B
:100F9000E3D50320704700000070004018000020D7
:100FA00040420F000248006800F4C0607047000033
:100FB000007000400248016841F480710160704790
:100FC000007000402DE9F84F044600270088E54DE9
:100FD0003E46010504F1200B1DD5606E78B1B0F5D9
:100FE000800F11D0B0F5000F04D0B0F5400F22D023
:100FF00001270FE0E86840F48030E8601BE0002142
:10100000201D01F0FFFF03E00021584602F090F898
:10101000070010D03E462088C00426D5A06EC0B17F
:10102000B0F1807F1AD0B0F1007F0DD0B0F1407FD9
:1010300019D0012718E0D5F88800616E20F440002F
:101040000843C5F88800E6E7E86840F48030E860C7
:1010500009E00021201D01F0D5FF03E000215846E2
:1010600002F066F80746F7B13E46206880033AD59D
:10107000A86D4FF00008C00009D4A86D40F0805062
:10108000A865A86D4FF0010800F080500090DFF8CF
:10109000D8A2DAF8001041F48071CAF80010FFF706
:1010A000B7FE814610E0D5F88800A16E20F04070B0
:1010B0000843C5F88800D8E7FFF7AAFEA0EB0900AF
:1010C000022801D9032705E0DAF80000C005F3D5AE
:1010D000002F7CD04FEA0706B8F1000F03D0A86DAF
:1010E00020F08050A8652078C00707D0D5F8880088
:1010F000A16B20F003000843C5F888002078800722
:1011000007D5D5F88800E16B20F00C000843C5F83E
:1011100088002078400707D5D5F88800216C20F09A
:1011200030000843C5F888002078000707D5D5F8B7
:101130008800616C20F0C0000843C5F88800207862
:10114000C00607D5D5F88800A16C20F4407008438C
:10115000C5F888002078800607D5D5F88800E16CAE
:1011600020F440600843C5F888002088800507D532
:10117000D5F88800E16D20F440200843C5F88800C8
:101180002088400507D5D5F88800216E20F440104E
:101190000843C5F888002078400607D5D5F88800B0
:1011A000216D20F440500843C5F8880020780006DF
:1011B00007D5D5F88800616D20F440400843C5F894
:1011C00088002088C00509D5D5F8880000E01CE01B
:1011D000A16D20F440300843C5F8880020884FF006
:1011E000006780044FF080684FD5D5F88800E16E25
:1011F00020F040600843C5F88800E06EB8423CD15A
:10120000E86840F48010E8603FE0D5F8900010F402
:10121000407015D0D4F88410814211D0D5F89000D8
:10122000D5F8901020F4407041F48031C5F890104A
:10123000D5F8901021F48031C5F89010C5F89000D1
:10124000C00710D0FFF7E4FD074641F2883906E0F9
:10125000FFF7DEFDC11B494501D903263CE7D5F860
:1012600090008007F4D5D5F89000D4F8841020F4CD
:1012700040700843C5F890002EE7404505D1012194
:10128000201D01F0BFFE00B106462068000317D5FF
:10129000D5F88800216F20F040600843C5F8880029
:1012A000206FB84204D1E86840F48010E86007E09D
:1012B000404505D10121201D01F0A4FE00B10646E4
:1012C0002068400317D5D5F88800616F20F0406092
:1012D0000843C5F88800606FB84204D1E86840F45C
:1012E0008010E86007E0404505D10121201D01F094
:1012F00089FE00B10646208840041AD5D5F888003A
:10130000A16F20F040500843C5F88800A06FB0F1ED
:10131000805F03D0B0F1005F05D00AE00221201DFC
:1013200001F070FE03E00221584601F001FF00B118
:1013300006462088000407D5D5F88800E16F20F024
:1013400080400843C5F888002068C00307D555F8D9
:10135000880FD4F8801020F0004008432860304601
:1013600000F004B8001002400070004018BCBDE856
:10137000E08F00002DE9F0470F4605006BD0494E85
:10138000306800F00700B84209D2306820F007004A
:1013900038433060306800F00700B8425BD12878ED
:1013A000414C80070AD5A868A16801F0F001884285
:1013B00004D9A16821F0F0010143A1602878C00799
:1013C0002CD06868032811D0022812D0216898B167
:1013D000490500293FDAA16821F003010143A1601A
:1013E000FFF716FD804641F2883910E02168890137
:1013F000EFE721688903ECE78907EAE7FFF708FDD3
:10140000A0EB0801494502D90320BDE8F087A06898
:10141000696800F00C00B0EB810FEFD128788007ED
:101420000AD5A868A16801F0F001884204D2A16839
:1014300021F0F0010143A160306800F00700B842DC
:101440000BD9306820F0070038433060306800F076
:101450000700B84201D00120D7E72878400705D51A
:10146000A068E96820F4E0600843A06028780007DD
:1014700006D5A068296920F4605040EAC100A06048
:1014800000F03EF8A168094AC1F30311515C01F074
:101490001F01C8400649086006480068BDE8F047DB
:1014A000FFF7D4BC00200240001002409047000823
:1014B00018000020100000200548064900688968CF
:1014C000054AC1F30221515C01F01F01C840704779
:1014D0001800002000100240D047000805480649C7
:1014E00000688968054AC1F3C221515C01F01F01FF
:1014F000C84070471800002000100240D047000884
:1015000070B52549002318468A68CC6812F00C0291
:1015100004F00306214C4FEA640509D00C2A05D0DB
:10152000042A32D0082A00D1284670BD012E10D1DD
:101530000B681B0704D4D1F89430C3F3032302E0F3
:101540000B68C3F30313164E56F82330DAB10C2A96
:10155000EBD1C86800F00300022818D0032818D087
:101560001846CA68CB68C2F30212C3F3062343438A
:10157000521CB3FBF2F2C868C0F34160401C40004B
:10158000B2FBF0F070BD184670BD204670BD20461D
:10159000E7E72846E5E70000001002400024F400D9
:1015A000A04700082DE9F84304006FD0FD4DA8685E
:1015B00000F00C06E86800F003072078C00664D548
:1015C00076B10C2E01D1012F0AD0A069002828681D
:1015D0007AD040F001002860FFF71AFC80465DE0F9
:1015E0002868800702D5A0690028DED0216A286813
:1015F000000703D5286800F0F00004E0D5F8940057
:10160000F02202EA1010814216D9084601F014FEB9
:1016100000283BD1286840F0080028602868216A2B
:1016200020F0F000084328606868E16920F47F40FA
:1016300040EA0120686016E0286840F00800286051
:101640002868216A20F0F000084328606868E16992
:1016500020F47F4040EA0120686026B9206A01F04A
:10166000EBFD0028D5D1FFF74BFFA968CE4AC1F3A7
:101670000311515C01F01F01C840CC490860CC48FF
:101680000068FFF7E3FB00287ED12EE0CAE000BF30
:10169000FFF7BEFBA0EB0800022876D82868800779
:1016A000F6D5286840F0080028602868216A20F0F4
:1016B000F000084328606868E16920F47F4040EA50
:1016C0000120686011E0FFE720F001002860FFF7CB
:1016D0009FFB804606E000BFFFF79AFBA0EB0800E7
:1016E0000228DAD828688007F6D42078C00740D0CE
:1016F000082E18D00C2E01D1032F14D06068B0F53D
:10170000803F17D0B0F5A02F286817D020F4803084
:101710002860286820F4802028606068E0B1FFF726
:1017200077FB804614E02868800322D56068002893
:1017300078D01EE0286840F48030EDE740F4802047
:101740002860F7E7FFF764FBA0EB08006428A4D843
:1017500028688003F6D50CE0FFF75AFB804605E0C9
:10176000FFF756FBA0EB0800642896D82868800392
:10177000F6D4207880073BD5042E11D00C2E01D151
:10178000022F0DD0E06801E086E1D6E0002828684D
:101790001ED040F480702860FFF73AFB07460CE04B
:1017A000286840050CD5E0680028C1D008E000BFDB
:1017B000FFF72EFBC01B022893D828684005F7D5F9
:1017C0006868217C20F0F85040EA016068600FE012
:1017D00020F480702860FFF71BFB074605E000BF80
:1017E000FFF716FBC01B0228B1D828684005F7D4C4
:1017F0002078000729D560690028D5F8940012D018
:1018000040F00100C5F89400FFF702FB074604E032
:10181000FFF7FEFAC01B022899D8D5F8940080077C
:10182000F6D512E000E120F00100C5F89400FFF7C2
:10183000EFFA074605E000BFFFF7EAFAC01B0228EF
:101840007BD8D5F894008007F6D42078400766D579
:10185000A86D0027C00008D4A86D40F08050A8658E
:10186000A86D012700F08050009052480168C9051A
:1018700012D40168814641F480710160FFF7C8FA13
:10188000804605E0FFF7C4FAA0EB0800022854D810
:10189000D9F80000C005F5D5A068012816D00528A4
:1018A000D5F8900017D020F00100C5F89000D5F8C9
:1018B000900020F0040000BFC5F89000A06841F23D
:1018C0008839C0B1FFF7A4FA80460FE0D5F8900040
:1018D00040F00100F0E740F00400C5F89000F5E7A3
:1018E000FFF796FAA0EB0801494526D8D5F89000F5
:1018F0008007F5D50EE0FFF78BFA804606E000BFC3
:10190000FFF786FAA0EB0801494516D8D5F89000F4
:101910008007F5D41FB1A86D20F08050A865A06A9B
:10192000F0B302280AD00C2E7ED0286820F08070F8
:101930002860FFF76DFA0446B0E0ACE0E868E26AC0
:1019400000F00301914229D1216B00F070020901DE
:101950001039914222D1626B00F4FE41B1EB022FAB
:101960001CD1A26B00F40031072A01D0012200E053
:101970000022914212D1A18F00F4C002490849050A
:10198000A1F50011914209D194F8401000F0C06017
:1019900049084906A1F1007181425ED00C2E0BE08E
:1019A00072E000000010024090470008180000207C
:1019B000100000200070004079D02868400176D4E3
:1019C0002868C00073D4286820F080702860FFF772
:1019D0001FFA064605E000BFFFF71AFA801B02282F
:1019E00059D828688001F7D4D4E90B016FF00F02B1
:1019F00002EB01110843A18F5204490802EB415147
:101A0000626B41EA0221084394F840104FF07E4295
:101A1000490802EB41610843A16B090940EA4140D2
:101A2000E968244A114000E041E00843E860286882
:101A300040F080702860E86840F08070E860FFF750
:101A4000E7F9044605E000BFFFF7E2F9001B0228B2
:101A500021D828688001F7D527E02868800124D4A0
:101A6000286840F080702860E86840F08070E86086
:101A7000FFF7CEF9044604E0FFF7CAF9001B02287D
:101A800009D828688001F7D50FE000BFFFF7C0F93B
:101A9000001B022802D90320BDE8F88328688001D2
:101AA000F4D4E86804490840E8600020F4E7012025
:101AB000F2E700008C809DF9FCFFEEFE10B5006897
:101AC0000B4641680D480140080CD870C1F304244E
:101AD0005C7001F03F049C70C1F34231197052B93F
:101AE00001F0E8FBD870587801F0E4FB5870987862
:101AF00001F0E0FB9870002010BD00003FFFFF00E8
:101B000010B50B460168896A596001680969C1F31B
:101B10000E019960006801680D480140C1F305405D
:101B20001870C1F306245C7001F07F049C70890D6D
:101B3000D97052B901F0BEFB1870587801F0BAFBA9
:101B40005870987801F0B6FB9870002010BD000026
:101B50007F7F7F0010B504004FF0010048D094F85B
:101B6000210028B9002084F82000204600F05AF80F
:101B7000022084F821002068C168C943C90638D50D
:101B8000CA214162216853204862204601F0A8FB27
:101B9000B0B9206881681A4A11408160216888685C
:101BA0006268A369104322691A4310438860216860
:101BB000E068086120680169228941EA0241016107
:101BC000204601F0B1FB00280DD12168CA6C22F03B
:101BD0000302CA646269E16941EA02012268D36CC6
:101BE00041EA0301D16422684FF0FF01516202D043
:101BF00010BD4FF000004FF0010184F8211010BD1E
:101C0000BFFF8FFF00680549884205D1044850F89E
:101C1000901F21F40041016070470000002800403F
:101C20000010024010B5A2B0044688216846FEF7B5
:101C300004FB0B492068884210D14FF4003000901B
:101C4000401221906846FFF7BDF908B1FEF77EFE0D
:101C5000044850F8901F41F40041016022B010BDCB
:101C6000002800400010024070B5044690F82000A3
:101C70000B4601281BD0012684F82060022084F83E
:101C80002100B2B19878D97840EA0145587819789E
:101C9000000240EA413005432168CA2048622168B9
:101CA00053204862204601F01BFBD0B120E0022007
:101CB00070BD5878C10603D500F0EF000A305870A7
:101CC000D87801F000FB0504587801F0FCFA45EAE9
:101CD0000025987801F0F7FA0543187845EA403571
:101CE000DAE70848054020684560204601F01CFB03
:101CF0002268FF21516208B984F82160002184F82C
:101D0000201070BD3FFFFF002DE9F041044690F820
:101D1000200090460D46012811D0012784F820703C
:101D2000022084F821002168CA20486221685320DB
:101D30004862204601F0D4FA002618B129E00220BA
:101D4000BDE8F0812068B8F1000F80684FEA40607C
:101D500024D0002800DBEE70A8782978EA7840EAE1
:101D600001406978090241EA825108431849084054
:101D7000216808602068816821F480218160D5E9AC
:101D80000301084321688A6810438860204601F0F7
:101D9000CBFA2268FF215162A0B115E0002800DBD8
:101DA000EE70287801F08FFA0304687801F08BFA5E
:101DB00043EA0023A87801F086FA0343E87843EA6F
:101DC0008050D3E784F8217084F82060B8E70000E1
:101DD0007F7F7F0070B504460B482168C860FFF71D
:101DE00017F805464FF47A7607E000BFFFF710F8C2
:101DF000401BB04201D9032070BD2068C068800636
:101E0000F4D5002070BD00005FFF03004FF0E0211B
:101E10000428086903D020F004000861704740F0EE
:101E20000400FAE710B5401EB0F1807F01D3012015
:101E300010BD4FF0E02460610F21601701F0B2FF88
:101E40000020A06107202061002010BD704770476E
:101E500070470000F0B590F83C20012A39D00124E9
:101E600080F83C40022280F83D2002685368956863
:101E7000194E1A4FB24201D0BA4204D123F4700C69
:101E80004B6843EA0C0323F0700C0B6843EA0C0325
:101E900053600268B24210D0B2F1804F0DD0104BA7
:101EA0009A420AD00F4B9A4207D00F4B9A4204D065
:101EB000BA4202D00D4B9A4204D1896825F08003C2
:101EC0001943916080F83D40002180F83C1008469D
:101ED000F0BD0220F0BD0000002C014000340140A4
:101EE0000004004000080040000C00400040014099
:101EF00010B5040003D094F83D0010B107E00120B4
:101F000010BD002084F83C00204600F023F8022099
:101F100084F83D00211D206801F090FA012084F82A
:101F2000480084F83E0084F83F0084F8400084F8BC
:101F3000410084F8420084F8430084F8440084F8A7
:101F4000450084F8460084F8470084F83D000020EE
:101F500010BD000008B501681448B1F1804F14D0DD
:101F6000134A914220D1816D41F002018165806D5B
:101F7000002200F00200009011461D20FEF7ACFF89
:101F80001D20BDE80840FEF799BF816D41F00101B9
:101F90008165806D002200F00100009011461C2038
:101FA000FEF79AFF1C20ECE708BD0000001002407D
:101FB0000004004090F83D10012901D00120704735
:101FC000022180F83D100168CA6842F00102CA602F
:101FD00000681149884211D0B0F1804F0ED00F49EE
:101FE00088420BD00E49884208D00E49884205D05D
:101FF0000D49884202D00D49884207D181680C4AB8
:102000001140062906D0B1F5803F03D0016841F0A8
:102010000101016000207047002C014000040040D5
:1020200000080040000C0040003401400040014026
:102030000700010070B5044690F83C000025012817
:1020400017D0012684F83C60022084F83D00226805
:1020500090682F4B184020F47F409060086850280B
:1020600038D00DDC20284FD005DC90B3102811D1DA
:102070004AE0022070BD302846D040280AD13BE01B
:1020800060282FD070280DD0B0F5805F03D0B0F558
:10209000005F12D0012584F83D60002084F83C00E8
:1020A000284670BDCB68D1E90121206801F026FAED
:1020B0002068816841F0770109E0CB68D1E901210E
:1020C000206801F01BFA2068816841F4804181603A
:1020D000E1E719E0CA684968206801F021FA502157
:1020E000206806E0CA684968206801F02AFA602181
:1020F000206801F00DFACEE7CA684968206801F04F
:102100000FFA40212068F4E7226801461046F0E704
:1021100088FFFEFF70472DE9F04104460068C6685D
:1021200005694FF00007A90713D5B10711D5F91EAE
:10213000016101202077206880698007204602D055
:10214000FFF7E8FF04E000F089F8204600F087F888
:102150002777680716D5700714D521686FF004003B
:102160000861022020772068806910F4407F2046B3
:1021700002D0FFF7CFFF04E000F070F8204600F037
:102180006EF82777280715D5300713D521686FF02B
:1021900008000861042020772068C0698007204675
:1021A00002D0FFF7B7FF04E000F058F8204600F037
:1021B00056F82777E80616D5F00614D521686FF093
:1021C00010000861082020772068C06910F4407F63
:1021D000204602D0FFF79EFF04E000F03FF82046C3
:1021E00000F03DF82777E80708D0F00706D021680F
:1021F0006FF001000861204600F032F8280608D58B
:10220000300606D521686FF0800008612046FFF790
:102210001EFEE80508D5300606D521686FF48070EB
:1022200008612046FFF712FE680608D5700606D53D
:1022300021686FF040000861204600F0BDF8A80654
:102240000AD5B00608D521686FF020000861204645
:10225000BDE8F041FFF7FCBDBDE8F0817047704775
:102260002DE9F041474988427ED1474C002701269D
:102270002068002867D16068401C6060062862DB27
:10228000DFF8088180214046FEF7B7FD0546402172
:102290004046FEF7B2FD054020214046FEF7ADFD69
:1022A000054010214046FEF7A8FD054008214046A4
:1022B000FEF7A3FD054004214046FEF79EFD0542C2
:1022C00006D1C4E90067A760FEF742FB00F0C8FA38
:1022D00080214046FEF791FD054640214046FEF72D
:1022E0008CFD054020214046FEF787FD054010216A
:1022F0004046FEF782FD054008214046FEF77DFD81
:10230000054004214046FEF778FD0540012D1AD115
:10231000C4E90067A660E068FEF70FF89FED1C1B9C
:1023200053EC112BFDF794FFFEF71AF8E060FEF76F
:1023300004F841EC100B18A053EC102B01F00EFD2B
:102340001AA001F00BFDA06838B994ED030AF7EE6E
:10235000000A30EE200A84ED030A1548016849B9E5
:102360004168491E416000E00AE003D5C0E900670A
:1023700000F07AFC0F490878002801D0401E087050
:10238000BDE8F081800000202C00002000100048F3
:102390007B14AE47E17A743F6B65795F6475726157
:1023A00074696F6E3A2530352E3266730D0A00005F
:1023B0003C0000201C000020704770B50446D0F897
:1023C00080000025202801D0022070BD69B162B1D3
:1023D0000120206600206066204601F099FB206EF7
:1023E000012804D00125284670BD012070BD216858
:1023F00010200862216851E8000F40F0100041E809
:102400000002002AF6D1EEE770B500681C49884248
:1024100034D11C4C2068002830D01BA001F09EFC59
:10242000A08881B204F10800054601F01DFC626835
:102430000C2A13D0082A19D016A001F08FFC18A07E
:1024400001F08CFC0F4801F027FC00206060294659
:10245000BDE8704014221348FFF7AFBF1249094886
:1024600000F050FD104801F033FCE8E70E49054844
:1024700000F092FD0C4801F04DFCE0E770BD00005B
:10248000004400401801002072617720646174618B
:102490003A00000077726F6E6720666F726D61742C
:1024A0000D0A00003401002004000020704770472E
:1024B0002DE9F04102680446D0691168936840F63E
:1024C0000F0528424FF000054FF0020605D18706A0
:1024D0007ED58F067CD5A16E2BE1DFF884C203F098
:1024E000010701EA0C0C57EA0C0C71D05FEAC07CC2
:1024F0000CD05FEAC15C09D54FF0010CC2F820C0D6
:10250000D4F8842042F00102C4F88420820709D55F
:10251000DA0707D022681662D4F8842042F0040259
:10252000C4F8842042070AD5DA0708D023680422B9
:102530001A62D4F8842042F00202C4F88420020710
:102540000CD501F020023A4308D0236808221A6211
:10255000D4F8842042F00802C4F8842002050BD588
:102560004A0109D523684FF400621A62D4F8842026
:1025700042F02002C4F88420D4F88420002A36D007
:10258000800605D5880603D5A16E09B12046884787
:10259000D4F8840021688968490602D410F0280F15
:1025A00027D0204601F0A1F82068806840061BD59E
:1025B0002068083050E8001F21F0400140E8001278
:1025C000002AF5D1606F78B166498163606F00E0E1
:1025D00015E0FEF7CEFA002809D0606F816B00E0AD
:1025E0002046BDE8F04108472046FFF760FFBDE800
:1025F000F0812046FFF75BFFC4F88450F7E7D4F87A
:1026000060C02027BCF1010F7ED15FEAC06C7FD58E
:102610005FEAC16C7CD5102010622068806840069B
:1026200043D5616F086840680004000CDFD0B4F83F
:1026300058208242DBD9A4F85A0008680068800656
:102640002BD4216851E8000F20F4807041E800028B
:10265000002AF6D12068083050E8001F21F001015F
:1026600040E80012002AF5D12068083050E8001F29
:1026700021F0400140E80012002AF5D1C4F8807032
:102680002566206850E8001F21F0100140E8001284
:10269000002AF6D1606FFEF747FA6666B4F8580074
:1026A000B4F85A10401A81B22CE0B4F85800B4F8CB
:1026B0005A10401A81B2B4F85A00002897D0002965
:1026C00095D0226852E8000F20F4907042E8000391
:1026D000002BF6D12068083050E8002F22F00102CC
:1026E00040E80023002BF5D1C4F880702566A5666C
:1026F000226852E8000F20F0100042E80003002B8F
:10270000F6D16666204600E002E0FFF77DFE6EE748
:10271000C60209D55B0207D54FF48010106220462F
:10272000BDE8F041FFF7C2BE020606D50A0604D591
:10273000E16E00297FF454AF59E74006E7D548061B
:10274000E5D52046026852E8001F21F0400142E82A
:102750000013002BF6D1C767C56600F07EF846E788
:1027600020010004D736000810B5040002D0E06F45
:1027700010B107E0012010BD002084F87800204649
:1027800000F026F82420E0672068016821F00101AC
:102790000160606A10B1204600F0E5FE204601F0BD
:1027A00093F80128E7D02068416821F49041416006
:1027B0002068816821F02A0181602068016841F069
:1027C000010101602046BDE8104000F030BF00006C
:1027D00030B5A9B00446142122A8FDF72EFD8821AA
:1027E0006846FDF72AFD1A49206888422ED1002547
:1027F00002240F9568460094FEF7E4FB08B1FEF74B
:10280000A5F81448816D41F400318165816D01F4B2
:1028100000312791C16C41F00101C164C06C22A953
:1028200000F0010027900C2081E831000320259062
:10283000072026904FF09040FEF7D0F90022114675
:102840002620FEF749FB2620FEF738FB29B030BDD5
:10285000004400400010024070477047FEE700004F
:1028600070B5164C0625A07820B1022804D00128A6
:1028700004D012E012A018E015A016E018A001F094
:102880006DFA1C48A57040F6B83141600168002916
:102890000ED00021016000F0E9F9A078042808D0EA
:1028A000032808D0052803D113A001F057FAA5701A
:1028B00070BD15A0F9E719A0F7E700002800002077
:1028C0004B45595F5245542050524553530D0A0011
:1028D0004B45595F5345542050524553530D0A0000
:1028E0004B45595F564F49442050524553530D0AAA
:1028F000000000003C0000204B45595F494E43203A
:1029000050524553530D0A004B45595F444F574EA3
:102910002050524553530D0A000000004B45595FAB
:1029200052494748542050524553530D0A00000065
:1029300010B5302000F01EF9BDE81040012000F075
:1029400019B9000038B51D4C1DA1A0780090E2789F
:1029500063781F4802F5FA6201F010FA00211C4A60
:10296000084600F0F8F8207808280CD2DFE800F0DC
:102970000B04061B1D1F212316A200E017A2012134
:10298000002000F0E8F81748817800914378027839
:1029900015A10F4801F0F2F9BDE8384002210C4AB8
:1029A000002000F0D8B814A2E9E716A2E7E718A2C1
:1029B000E5E719A2E3E71BA2E1E700000000002021
:1029C000253034642F253032642F253032640000E6
:1029D000BC0100204D4F4E44415900005455455311
:1029E0004441590048000020253032643A253032F5
:1029F000643A2530326400005745444E4553444103
:102A000059000000544855525344415900000000F9
:102A1000465249444159000053415455524441598A
:102A20000000000053554E444159000000B585B0E8
:102A300014216846FDF701FC4FF47F400090002010
:102A40000190029069460248FEF7C8F805B000BD43
:102A5000000C004800B585B014216846FDF7EDFB79
:102A60004FF47F400090012001900020029002204E
:102A7000039069460248FEF7B1F805B000BD0000BA
:102A8000000C004810B50C4C012291022046FEF7C4
:102A9000B9F9012211032046FEF7B4F9074C0022D0
:102AA00002212046FEF7AEF920460022BDE8104084
:102AB0000121FEF7A7B900000004004800100048FB
:102AC00070B5124C00224FF480612046FEF79AF94F
:102AD0000F4D012202212846FEF794F901221146EA
:102AE0002846FEF78FF900224FF480512046FEF76A
:102AF00089F93220FDF7CCFEFFF71AFF062000F01F
:102B000039F8BDE870400C2000F034B800040048EB
:102B10000010004870B50D460446072801D8032D63
:102B200001D9012070BD302000F024F855B1012DED
:102B30000BD0022D0CD044F0980000BF00F01AF822
:102B4000002070BD44F08000F8E744F09000F5E705
:102B500044F08800F2E710B51446FFF7DBFF20B120
:102B6000012010BD641C00F037F820780028F9D14E
:102B700010BD000070B50446FDF74CFEFFF76AFF7C
:102B8000134D00224FF480712846FEF73BF90022D6
:102B900080212846FEF736F90E494FF6FF7000EA0D
:102BA00004200A68D2B202430A606420FDF78AFE5C
:102BB000012240212846FEF725F9FA20FDF782FE82
:102BC0002846BDE8704000224021FEF71BB90000F6
:102BD00000080048140C004870B50446FDF71AFEC2
:102BE000FFF738FF124D012211022846FEF70AF9BD
:102BF000002280212846FEF705F90E494FF6FF70A6
:102C000000EA04200A68D2B202430A606420FDF799
:102C100059FE012240212846FEF7F4F8FA20FDF77C
:102C200051FE2846BDE8704000224021FEF7EAB878
:102C300000080048140C004870B5012214024FF03F
:102C4000904521462846FEF7DDF84FF4FA763046E7
:102C5000FDF71EFE002221462846FEF7D3F8304637
:102C6000BDE87040FDF714BEFFF70CBFFFF728BFAB
:102C700002490022C1E90020704700003C0000200A
:102C800070B586B014216846FDF7D7FA2B48C16CA1
:102C900041F01001C164C16C01F010010591C16CDB
:102CA00041F00401C164C16C01F004010591C16CE3
:102CB00041F00101C164C06C4FF4807500F0010067
:102CC0004FF090460590002229463046FEF79AF8CC
:102CD000FC2000904FF444100124CDE90104694622
:102CE0001748FDF77BFF00210095CDE901410391D5
:102CF00069463046FDF772FF002211460820FEF7B4
:102D0000EBF80820FEF7DAF8002211460920FEF75A
:102D1000E3F80920FEF7D2F8002211460A20FEF758
:102D2000DBF80A20FEF7CAF8002211461720FEF74A
:102D3000D3F81720FEF7C2F806B070BD00100240AD
:102D40000010004810B586B014216846FDF775FAEA
:102D50001C4800241A490594C0E900147F218160B1
:102D6000FF21C0E9031444618461C461FEF7F2FEEF
:102D700008B1FDF7EBFD8DF800408DF801408DF8AE
:102D800002400394012269460E480494FEF7BCFFFA
:102D900008B1FDF7DBFD01208DF814008DF815005A
:102DA0008DF8160002468DF8174005A90548FEF774
:102DB0005BFF002801D0FDF7C9FD06B010BD000083
:102DC000002800405C00002010B588B0002418489E
:102DD0000094019402940394049405944FF080416C
:102DE0000694016041F63F71C0E901143121C0E948
:102DF00003148461FFF77CF808B1FDF7A7FD4FF4D9
:102E00008050009069460A48FFF714F908B1FDF7B1
:102E10009DFD049404A906480694FFF71BF808B129
:102E2000FDF794FD0248FFF7C5F808B010BD00009B
:102E30008000002010B588B0002418480094019448
:102E4000029403940494059413490694016040F29B
:102E50001F31C0E901140921C0E903148461FFF79F
:102E600047F808B1FDF772FD4FF4805000906946B5
:102E70000A48FFF7DFF808B1FDF768FD049404A9DC
:102E800006480694FEF7E6FF08B1FDF75FFD03482C
:102E9000FFF790F808B010BD00040040CC000020FF
:102EA00010B5154C13480C2120604FF4E1306060E0
:102EB0000020A060E060C4E90401A061E06120623C
:102EC00060622046FFF750FC08B1FDF73FFD206827
:102ED000016841F0200101602068016841F01001A3
:102EE000016005491422BDE8104014390248FFF77B
:102EF00064BA00000044004034010020FEE7FEE711
:102F000070470000F8B50C46817A01F00F02C17AD3
:102F100062F31F112170017B01F00F02417B62F30C
:102F20001F116170817B01F00F02C17B62F31F11E1
:102F3000A170017C407C01F00F0161F31F10E07073
:102F400000F0B8F90746A07800F0B4F906466078BA
:102F500000F0B0F90546207800F0ACF900F5FA6110
:102F600033462A4602A0009700F0F8FEF8BD0000A4
:102F7000444154453A20253032642F253032642FA5
:102F8000253032640D0A5745454B4441593A2025B6
:102F90003032640D0A00000070B50C46017A01F071
:102FA0000F02417A62F31F112171817A01F00F0241
:102FB000C17A62F31F116171017B407B01F00F0147
:102FC00061F31F10A07100F075F90646607900F0FA
:102FD00071F90546207900F06DF933462A46BDE8BF
:102FE0007040014601A000F0B9BE000054494D45B3
:102FF0003A20253032643A253032643A2530326442
:103000000D0A00002DE9F041444C05468846E06871
:103010000026810728680DD0E16801F00301814294
:1030200016D1A8B1E0686968C0F30210401C88425C
:103030000ED120E0012804D0022805D0032807D1B2
:1030400008E02168890701E021684905002907DBBC
:1030500001265FE02168890302D421684903F5E76E
:10306000E1686A686FF00F0321F0730103EB02124D
:1030700011430143E160206820F080602060FDF78B
:10308000C7FE074605E000BFFDF7C2FEC01B0228D1
:1030900037D820680001F7D4B8F1000F18D0B8F184
:1030A000010F1ED0287D4FF07E41400801EB4060AB
:1030B000A96840EA01202169194A114008432061AA
:1030C000206840F080602060FDF7A2FE07461AE00D
:1030D000A868E9680002090940EA41402169114AEB
:1030E000EBE7288A1049400801EB4050A96840EA04
:1030F000012021690D4AE0E7FDF78AFEC01B022886
:1031000001D9032606E020680001F5D52069A969E8
:10311000084320613046BDE8F08100000010024005
:10312000FF80FFF9FF80FDFF0000E0FFFF809FFFB1
:103130002DE9F0413D4C06468846E06800258107B0
:1031400030680DD0E16801F00301814216D1A8B1C9
:10315000E0687168C0F30210401C88420ED120E084
:10316000012804D0022805D0032807D108E02168EF
:10317000890701E021684905002907DB012551E0A5
:103180002168890302D421684903F5E7E168726880
:103190006FF00F0321F0730103EB0212114301439F
:1031A000E160206820F080502060FDF731FE074686
:1031B00005E000BFFDF72CFEC01B022829D82068BF
:1031C0008000F7D4B8F1000F15D0307C4FF07E416D
:1031D000400801EB4060B16840EA01206169144A8F
:1031E000114008436061206840F080502060FDF786
:1031F0000FFE07460FE0B068F1680002090940EAD7
:10320000414061690B4AEBE7FDF702FEC01B022853
:1032100001D9032506E020688000F5D56069716951
:10322000084360612846BDE8F081000000100240BC
:10323000FF80FFF9FF80FDFFF8B51C4D0646002416
:10324000A86DC00002D5FDF7ADFE0DE0A86D40F001
:103250008050A865A86D00F080500090FDF7A2FE98
:10326000A96D21F08051A965B0F5007F04D0802EB2
:1032700007D94FF003040AE0802E08D9A02E01D808
:1032800004E001D1022402E0702E00D1012408489C
:10329000016821F0070121430160006800F0070088
:1032A000A04201D00120F8BD0020F8BD001002406E
:1032B00000200240010901EB810100F00F0000EB4A
:1032C0004100C0B270470022014602E00A39C9B28B
:1032D000521C0A29FAD2100741EA10607047000018
:1032E0002DE9F041044600680025C168490617D45D
:1032F000691EC160FDF78CFD06464FF47A780327FE
:1033000008E000BFFDF784FD801B404502D903257E
:1033100084F821702068C068400601D4032DF1D1E3
:103320002846BDE8F08100002DE9F041064613482B
:103330000025016821F080010160041F20684FF022
:103340000307800607D43046FEF744FD90B186F8A7
:10335000217003250EE0206820F020002060304618
:10336000FEF738FD10B186F821700325206840F083
:10337000200020602846BDE8F08100000C280040B5
:103380007047FDF74BBD000000B597B0442168467B
:10339000FCF753FF142111A8FCF74FFF4FF4007006
:1033A000FDF7CCFD08B172B6FEE7FDF703FE184845
:1033B00050F8901F21F018010160062001210090B3
:1033C0000802CDE902101020049002200A90CDE9F5
:1033D0000B010A210D910721CDE90E1010906846CE
:1033E000FEF7E0F808B172B6FEE70F201190032057
:1033F00012900020139014901590042111A8FDF74D
:10340000B9FF002801D072B6FEE717B000BD00007A
:10341000001002400248016841F4700101607047E9
:1034200088ED00E00148FEF776BE00008000002035
:103430000148FEF770BE0000CC0000202DE9F047E7
:103440000268264B264D274E274F284C4FF0804AC6
:10345000984209D0504507D0A84205D0B04203D0C9
:10346000B84201D0A04204D122F0700C4A6842EA6E
:103470000C02DFF87CC0DFF87C80DFF87C9098429B
:103480000FD050450DD0A8420BD0B04209D0B84261
:1034900007D0A04205D0604503D0404501D0484543
:1034A00003D122F44075CA682A434D6922F0800294
:1034B0002A4302608A68C2620A688262984207D020
:1034C000A04205D0604503D0404501D0484501D118
:1034D0000969016301214161BDE8F087002C0140C9
:1034E0000004004000080040000C0040003401408F
:1034F00000400140004401400048014010B584688C
:1035000042EA032224F47F440A432243826010BD2E
:10351000826822F070020A4342F00701816070471E
:1035200010B5036A046A24F001040462846924F07B
:10353000F00444EA021423F00A020A43846102629E
:1035400010BD10B5036A046A24F010040462846993
:1035500023F0A00324F4704444EA023243EA011148
:103560008261016210BD90F82410090706D5016838
:103570004A68436B22F400421A434A6090F82410D0
:10358000C90706D001684A68836A22F400321A43E8
:103590004A6090F82410890706D501684A68C36A12
:1035A00022F480321A434A6090F82410490706D565
:1035B00001684A68036B22F480221A434A6090F83B
:1035C0002410C90606D501688A68836B22F48052EC
:1035D0001A438A6090F82410890606D501688A6823
:1035E000C36B22F400521A438A6090F824104906F3
:1035F00011D501684A68036C22F480121A434A60AC
:10360000016CB1F5801F06D101684A68436C22F451
:10361000C0021A434A6090F82410090606D50168D2
:103620004A68806C22F4002202434A6070472DE908
:10363000F84300260446C0F88460FDF7E9FB8046A5
:10364000206800684FF0200500076FF07E4712D514
:103650004346002229042046009700F0B5FA50B1F5
:10366000216851E8000F20F0800041E80002002AA4
:10367000F6D1E56721E020680068400722D543467F
:1036800000224FF480012046009700F09DFAC8B157
:10369000216851E8000F20F4907041E80002002AF0
:1036A000F6D12068083050E8001F21F0010140E801
:1036B0000012002AF5D1C4F8805084F87860032005
:1036C000BDE8F883E567C4F8805044F8606F666031
:1036D00026760020F4E710B5806A0021A0F85A1081
:1036E000A0F85210FEF7E3FE10BD016851E8002F6C
:1036F00022F4907241E80023002BF6D101680831D2
:1037000051E8002F22F0010241E80023002BF5D1FF
:10371000016E012908D1026852E8001F21F0100152
:1037200042E80013002BF6D12021C0F880100021C0
:10373000016681667047000010B5B0F85C20D0F8D3
:1037400080300168222B04D0088B40F008000883E9
:1037500010BD898C436D11401980416D891C4165F4
:10376000B0F85A10491EA0F85A10B0F85A100029A3
:10377000EED1016851E8002F22F4907241E8002355
:10378000002BF6D10168083151E8002F22F0010228
:1037900041E80023002BF5D12021C0F88010002142
:1037A00081664166154B02689A420BD0526812023C
:1037B00008D5036853E8002F22F0806243E8002414
:1037C000002CF6D1026E012A02D0FFF745F810BD99
:1037D0000166026852E8001F21F0100142E8001360
:1037E000002BF6D10168CA69D243D20601D4102257
:1037F0000A62B0F85810FEF707FE10BD00800040C6
:1038000010B5B0F85C20D0F880300168222B04D0CD
:10381000088B40F00800088310BD898C1140426D70
:103820001170416D491C4165B0F85A10491EA0F84D
:103830005A10B0F85A100029EED1026852E8001F61
:1038400021F4907142E80013002BF6D10168083191
:1038500051E8002F22F0010241E80023002BF5D1AE
:103860002021C0F88010002181664166154B026856
:103870009A420BD05268120208D5036853E8002F11
:1038800022F0806243E80024002CF6D1026E012A67
:1038900002D0FEF7E1FF10BD0166026852E8001F8A
:1038A00021F0100142E80013002BF6D10168CA692B
:1038B000D243D20601D410220A62B0F85810FEF7A3
:1038C000A3FD10BD008000402DE9F04104460168D1
:1038D00080682269E3691043626900251A43104336
:1038E000814F0A68814B1A4002430A602068416890
:1038F000E26821F44051114341602168A069B94256
:1039000001D0226A10438A6822F4306202438A603E
:103910007749226877488A420DD1D0F8880010F0A4
:10392000030006D0012866D0022854D0032851D1C4
:1039300063E001204FE070498A420BD1D0F8880043
:1039400010F00C0047D0042845D0082851D00C288E
:1039500040D152E069498A420BD1D0F8880010F07A
:10396000300038D0102846D0202842D0302831D11D
:1039700043E063498A420BD1D0F8880010F0C000C0
:1039800029D0402837D0802833D0C02822D134E035
:103990005C498A420ED1D0F8880010F440701AD0E9
:1039A000B0F5807F27D0B0F5007F22D0B0F5407F02
:1039B00010D122E0BA420DD1D0F8880010F4406056
:1039C00009D0B0F5806F16D0B0F5006F11D0B0F50A
:1039D000406F12D010204C4900264FF40043BA42E9
:1039E0002ED160B102280DD004280DD008286FD147
:1039F0000EE00220EFE70420EDE70820EBE7FDF7FB
:103A00005BFD03E00B4603E0FDF77AFD030060D0A9
:103A1000626802EB420098425AD8B3EB023F57D893
:103A2000190E1B025008181871410023FCF7CAFB3D
:103A3000364AA0F5407191424AD82168C86048E0F2
:103A4000E2694FF6EF779A4227D1092840D2DFE8A2
:103A500000F005080D3F213F3F3F0E00FDF72CFD14
:103A600001E0FDF73BFD030001D132E00B46606849
:103A7000590001EB5001B1FBF0F0A0F11001B94287
:103A800026D84FF6F0710140C0F342000143206890
:103A9000C1601EE0FDF734FDE5E7092818D2DFE834
:103AA00000F005080D171D1717170E00FDF704FD90
:103AB00001E0FDF713FD030001D10AE00B46606849
:103AC00003EB5001B1FBF0F0A0F11001B94208D9AD
:103AD0000125A6662846E666BDE8F081FDF710FDE3
:103AE000E9E780B2A9E7000000800040F369FFEF3A
:103AF00000380140001002400044004000480040EF
:103B0000004C0040005000400024F400FFFC0F0077
:103B100030B54165A0F85820A0F85A2000228266EE
:103B200081684FF48055FF23A94204D1016969BB24
:103B300040F2FF1130E07F2431B3B1F1805F28D033
:103B4000A0F85C20C0F884202221C0F88010016811
:103B5000083151E8002F42F0010241E80023002B18
:103B6000F5D18168A94201D10169D9B114498166B1
:103B70000169C9B1016851E8002F42F4907241E82F
:103B80000023002BF6D118E0016941B9A0F85C30A0
:103B9000D8E7016919B13F21A0F85C10D2E7A0F87D
:103BA0005C40CFE707498166026852E8001F41F098
:103BB000200142E80013002BF6D1002030BD0000A8
:103BC00001380008393700082DE9F04799461746B3
:103BD0000E4604464FF00008089D2FE0681C2DD0CB
:103BE000FDF716F9A0EB0900A84214D89DB1206892
:103BF0000168490722D5C169C94309070DD40825C1
:103C000005622046FFF771FDC4F8845084F878807F
:103C10000120BDE8F0870320FBE7C069C043000531
:103C20000CD421684FF4006008622046FFF75DFD68
:103C30002020C4F8840084F87880ECE72068C0690C
:103C400036EA000004D00020B842C7D00020E0E7E8
:103C50000120F9E703490A685206FCD501490C31F5
:103C6000088070471C44004030B50C4605460023D0
:103C700004E0E85CFFF7EEFF5B1C9BB2A342F8D3C5
:103C800030BD01210022C0E9001211464318491C31
:103C90001A721429FADB704700210A4602E0431821
:103CA000491C1A7243688B42F9DC70470648006869
:103CB000C069C043800603D404484168491C416080
:103CC0000148FEF7F5BB0000340100201801002078
:103CD00010B504460D48FDF795FF0D48E1780170D9
:103CE00061784170A17881702178C1700748FDF733
:103CF00099FF012206490548FDF7B6FF002803D0C9
:103D0000BDE81040FCF722BE10BD00005C000020A2
:103D10000000002010B504460D48FDF773FF0D4963
:103D20002079087060794870A07988700020C86098
:103D300008610748FDF776FF012206490448FDF7B0
:103D4000E3FF002803D0BDE81040FCF7FFBD10BD25
:103D50005C00002048000020FEE700000FB4054B87
:103D600010B503A9044A029800F002F910BC5DF8EE
:103D700014FB000089460008440000200FB4084BE3
:103D800010B504A902AA039800F0F2F8044602A9AB
:103D9000002000F073FC204610BC5DF814FB00000E
:103DA0007D4600080907090E002804DB00F1E02029
:103DB00080F80014704700F00F0000F1E02080F858
:103DC000141D704702E008C8121F08C1002AFAD16A
:103DD00070477047002001E001C1121F002AFBD18B
:103DE000704700002DE9FF5F82B00021DDE904305B
:103DF000020DDDF840B0034318D044F61050A2F293
:103E0000FF3242431514119801281FD0A5EB0B0077
:103E1000401C5FEA000A4FF000064E4FDFF8389171
:103E2000B046504615D5CAF1000413E0119801249C
:103E30004AA3012801D16FEA0B010298119AC0E947
:103E40000031C0E9024206B000F08EB8CBF10000AC
:103E5000DFE704460021404A491842EB0450CDE90F
:103E6000001012E0E00707D032463B464046494684
:103E7000FCF7EEF98046894632463B461046194625
:103E8000FCF7E6F906460F466410002CEAD1DDE99E
:103E90000401DDE90023BAF1000F06DAFCF7D8F9D6
:103EA00042464B46FCF7D4F905E0FCF7EDFB4246F1
:103EB0004B46FCF7E9FB04460E460022284BFCF774
:103EC0006BFC03D84FF0FF30014607E00022254B82
:103ED00020463146FCF729FBFCF745FC102409E09D
:103EE000002C0ADB0A220023FCF76CF9039B30321A
:103EF0001A55641E50EA0102F2D1641C039AC4F1FF
:103F000011031444119A012A03D0012208430DD150
:103F10000AE0084304D000204FF0110B119072E723
:103F2000A3EB0B056D1E0DE05B4504DD4FF00002B9
:103F300005F1010504E003DA4FF00002A5F10105E7
:103F4000002AECD002981199C0E90231C0E900457D
:103F500079E70000000014400000F03F300000004E
:103F60000000F0430000E03F30BCBDE8C09F00000F
:103F70002DE9FF4F95B09A46884606460025EEE1AA
:103F8000252877D100242746F94A0121039400E02F
:103F9000044316F8013F203B01FA03F01042F7D129
:103FA00030782A2811D06FF02F033078A0F130023A
:103FB000092A16D8039A44F0020402EB820203EBAA
:103FC00042021044761C0390EFE758F8042B03924A
:103FD000002A03DA504244F40054039044F00204EF
:103FE000761C30782E2816D116F8010F44F0040400
:103FF0002A280DD06FF02F023078A0F13003092B62
:1040000009D807EB870302EB4303C718761CF3E7D5
:1040100058F8047B761C30786C280FD006DC4C28CE
:1040200017D068280DD06A2814D104E0742810D065
:104030007A280FD10DE044F400140AE044F480140F
:1040400001E044F440147278824202D104F58014F5
:10405000761C761C307866280BD013DC582877D075
:1040600009DC002875D04528F6D04628F4D047282A
:104070001AD193E118E0632835D0642879D06528F7
:1040800012D18BE1702873D008DC6728F1D0692841
:104090006FD06E280DD06F2806D1ACE073282CD0DD
:1040A000752874D0782853D05246179990476D1CC4
:1040B00054E1C4F30250022809D003280DD0D8F8E7
:1040C000001004280DD00D6008F1040846E1D8F86E
:1040D0000010EA17C1E90052F6E7D8F800100D8089
:1040E000F2E70D70F0E718F8041B8DF800100020BF
:1040F0008DF80100EB46012003E058F804BB4FF0B7
:10410000FF3061074FF0000102D40DE009F1010119
:104110008946B9420FDA8145F8DB1BF809100029FE
:10412000F4D108E009F1010189468142FADB1BF86C
:1041300009100029F6D103985346A0EB0907214640
:104140003846179A00F083FA284400EB090507E087
:1041500044E008E10DE01BF8010B52461799904727
:10416000B9F10109F7D2534621463846179AF2E0D1
:1041700039E00A21C4F302524FF0000B0091022AE9
:1041800006D058F8040BC117032A09D00AE023E02F
:1041900008F1070020F00702F2E80201904605E06E
:1041A00000B2C117042A01D140B2C117002906DAB2
:1041B0000A460021404261EB02012D2202E0220565
:1041C00004D52B228DF80420012203E0E20701D060
:1041D0002022F7E7914657E00A2100E010214FF036
:1041E000000B00910BE010214FF0000B44F0040491
:1041F0000827009103E008204FF0000B0090C4F363
:104200000252022A05D058F8040B0021032A08D0D4
:1042100008E008F1070020F00702F2E802019046EA
:1042200003E080B2042A00D1C0B24FF00009220797
:104230002AD53278702A07D0DDF800C08CF0100C37
:104240005CEA0B0C05D00EE040228DF80420012220
:1042500008E050EA010306D030238DF804308DF8D1
:10426000052002229146009B83F0080353EA0B03CA
:104270000AD150EA010201D1620705D530228DF83A
:1042800004204FF001097F1E3278582A04D039A249
:104290000C920CAA02920BE03BA2F9E75B46009A53
:1042A000FBF790FF0C9B9B5C029A521E02921370CC
:1042B00050EA0102F2D1029804A9081A00F1200B79
:1042C000600702D524F4803400E001275F4502DD59
:1042D000A7EB0B0000E0002000EB0B01009003981F
:1042E0004944401A0390E00306D453462146179AE6
:1042F000039800F0ACF90544002706E001A85246F7
:10430000C05D179990476D1C7F1C4F45F6DBE0039D
:104310000CD553462146179A039800F098F90544A6
:1043200004E030205246179990476D1C0099481EB2
:1043300000900029F5DC08E00298029952460078C6
:10434000491C0291179990476D1CBBF10001ABF11C
:10435000010BF1DC5BE100F068F90544761C307874
:1043600000287FF40DAE19B0284600F05BB90000BC
:10437000092801003031323334353637383961623B
:1043800063646566000000003031323334353637FF
:10439000383941424344454600000000600700D4DC
:1043A000062708F1070020F00700F0E80223804606
:1043B00003F0004C5FEA0C0001D097A009E0200553
:1043C00001D596A005E0E00701D095A001E0AFF28D
:1043D0004C001390307823F0004365280CD006DCA5
:1043E000452809D046281DD047287FD13BE06628C4
:1043F00018D067287AD136E00021112F01DB112077
:1044000000E0781CCDE9000104A90CA8FFF7EAFC44
:10441000DDE90D010C9A4FF0000B07F10109109234
:1044200000914EE04FF000400097CDE9011004A943
:104430000CA8FFF7D7FCDDE90D020C9B0F994FF09C
:10444000000B91461093009211B9791C00EB010901
:10445000B7EB090003D4C0F1FF3B07F10109A9EB59
:104460000700019042E0012F00DA01270021112FFF
:1044700001DD112000E03846CDE9000104A90CA8B7
:10448000FFF7B0FCDDE90D010C9A00914FF0000B35
:10449000B946109221070FD4009A4A4503DA914693
:1044A00001E0A9F10109B9F1010F05DD109AA9F1A7
:1044B0000101515C3029F4D0B84202DA10F1040F46
:1044C00003DA0121CDE9011010E0002803DC834468
:1044D000A9EB000102E0411C494500DD8946A0EB43
:1044E0000B00401C01904FF000400290200705D4C3
:1044F0000198484502DB4FF0FF30019000208DF815
:104500004B0002980DF14B07B0F1004F25D002206F
:104510000C902B200D90029800280CDA404202905B
:104520002D200D9007E00A210298FBF735FF30316E
:10453000029007F8011D0C99481E0C900029F2DC2E
:1045400002980028EFD1791E0D980870307800F09D
:10455000200040F0450007F8020D11A8C01BC01D47
:1045600002901398007800B1012000EB0901019836
:1045700001EBE071029801440398401A401E039039
:10458000E00306D453462146179A039800F05FF8DB
:1045900005441398007818B15246179990476D1C3E
:1045A000E00323D553462146179A039800F04FF8AD
:1045B00005441BE0BBF1000F07DB0098584504DD04
:1045C0001098179910F80B0001E017993020524607
:1045D000904701980BF1010B401E05F10105019078
:1045E00004D12E205246179990476D1CB9F1000155
:1045F000A9F10109DEDC05E017F8010B5246179915
:1046000090476D1C0299481E02900029F4DC534625
:104610002146179A03989EE62D0000002B0000000B
:104620002000000030BCBDE8C08F2DE9F0410446F9
:1046300000251E461746880404D405E0394620208C
:10464000B0476D1C641EF9D52846BDE8F0812DE900
:10465000F041044600251E469046C80301D5302788
:1046600000E02027880404D505E041463846B047DD
:104670006D1C641EF9D52846BDE8F0810A68531CFC
:104680000B6010707047000004490A685206FCD5A0
:10469000024AC1B20C321180704700001C44004035
:1046A00008B5FCF7C3FBFEF76FFEFEF7E9FAFEF76D
:1046B00049FBFEF7F5FBFEF787FBFEF7BBFBFCF7BC
:1046C000D9F8FCF76BF9FEF7FBF900224FF48051A3
:1046D0001948FCF797FBFEF72BF91848FFF7D1FABA
:1046E00040F6B830FEF7C4FA154C002215491648BA
:1046F000FDF706FA002215491348FDF7DFF9206897
:10470000B0B9124801780091C1788378427810A03E
:1047100001F5FA61FFF722FB0A48837842780178B5
:1047200015A0FFF71BFB19A0FFF718FBFEF70AF90E
:10473000FEF782FAD9E700000004004818010020C3
:104740003C000020480000205C0000200000002009
:10475000444154453A20253032642F253032642FAD
:10476000253032640D0A5745454B4441593A2025BE
:104770003032640D0A00000054494D453A2025307E
:1047800032643A253032643A253032640D0A000032
:1047900000000000000000000102030406070809F1
:1047A000A0860100400D0300801A060000350C00B1
:1047B00040420F0080841E0000093D0000127A0074
:1047C0000024F40000366E010048E801006CDC02B1
:1047D0000000000001020304F84700080000002068
:1047E00048000000C43D0008404800084800002080
:1047F000A8050000D43D00080000000000000000F3
:104800000000000001000000100000000000000097
:1048100000093D0000000000000000000000000052
:104820000000060001000000000000000100000080
:104830000000000000000000000000000000000078
:040000050800018965
:00000001FF
